{"abi":[{"type":"constructor","inputs":[{"name":"_initialPrice","type":"uint256","internalType":"uint256"},{"name":"_range","type":"uint256","internalType":"uint256"}],"stateMutability":"nonpayable"},{"type":"function","name":"checkAndRebalance","inputs":[],"outputs":[],"stateMutability":"nonpayable"},{"type":"function","name":"getCurrentPrice","inputs":[],"outputs":[{"name":"","type":"uint256","internalType":"uint256"}],"stateMutability":"view"},{"type":"function","name":"liquidity","inputs":[],"outputs":[{"name":"","type":"uint256","internalType":"uint256"}],"stateMutability":"view"},{"type":"function","name":"lowerPrice","inputs":[],"outputs":[{"name":"","type":"uint256","internalType":"uint256"}],"stateMutability":"view"},{"type":"function","name":"owner","inputs":[],"outputs":[{"name":"","type":"address","internalType":"address"}],"stateMutability":"view"},{"type":"function","name":"upperPrice","inputs":[],"outputs":[{"name":"","type":"uint256","internalType":"uint256"}],"stateMutability":"view"},{"type":"event","name":"LiquidityAdded","inputs":[{"name":"amount","type":"uint256","indexed":false,"internalType":"uint256"},{"name":"newLower","type":"uint256","indexed":false,"internalType":"uint256"},{"name":"newUpper","type":"uint256","indexed":false,"internalType":"uint256"}],"anonymous":false},{"type":"event","name":"LiquidityRemoved","inputs":[{"name":"amount","type":"uint256","indexed":false,"internalType":"uint256"}],"anonymous":false}],"bytecode":{"object":"0x608060405234801561000f575f5ffd5b506040516106d43803806106d4833981810160405281019061003191906100db565b335f5f6101000a81548173ffffffffffffffffffffffffffffffffffffffff021916908373ffffffffffffffffffffffffffffffffffffffff160217905550808261007c9190610146565b600181905550808261008e9190610179565b6002819055506103e860038190555050506101ac565b5f5ffd5b5f819050919050565b6100ba816100a8565b81146100c4575f5ffd5b50565b5f815190506100d5816100b1565b92915050565b5f5f604083850312156100f1576100f06100a4565b5b5f6100fe858286016100c7565b925050602061010f858286016100c7565b9150509250929050565b7f4e487b71000000000000000000000000000000000000000000000000000000005f52601160045260245ffd5b5f610150826100a8565b915061015b836100a8565b925082820390508181111561017357610172610119565b5b92915050565b5f610183826100a8565b915061018e836100a8565b92508282019050808211156101a6576101a5610119565b5b92915050565b61051b806101b95f395ff3fe608060405234801561000f575f5ffd5b5060043610610060575f3560e01c80631a686502146100645780633ed55f0c146100825780638da5cb5b1461008c578063c87c0f79146100aa578063e345873e146100c8578063eb91d37e146100e6575b5f5ffd5b61006c610104565b60405161007991906102d7565b60405180910390f35b61008a61010a565b005b6100946101c6565b6040516100a1919061032f565b60405180910390f35b6100b26101ea565b6040516100bf91906102d7565b60405180910390f35b6100d06101f0565b6040516100dd91906102d7565b60405180910390f35b6100ee6101f6565b6040516100fb91906102d7565b60405180910390f35b60035481565b5f5f9054906101000a900473ffffffffffffffffffffffffffffffffffffffff1673ffffffffffffffffffffffffffffffffffffffff163373ffffffffffffffffffffffffffffffffffffffff1614610198576040517f08c379a000000000000000000000000000000000000000000000000000000000815260040161018f906103a2565b60405180910390fd5b5f6101a16101f6565b90506001548110806101b4575060025481115b156101c3576101c28161020a565b5b50565b5f5f9054906101000a900473ffffffffffffffffffffffffffffffffffffffff1681565b60015481565b60025481565b5f610bb84261020591906103ed565b905090565b7f0a2ac2d0ff5dd766a6215edf0289e7aedf3647514518fb2694c0c0584902e7cc60035460405161023b91906102d7565b60405180910390a15f6003819055506101f481610258919061044a565b6001819055506101f48161026c919061047d565b6002819055506103e86003819055507fd7f28048575eead8851d024ead087913957dfb4fd1a02b4d1573f5352a5a2be36003546001546002546040516102b4939291906104b0565b60405180910390a150565b5f819050919050565b6102d1816102bf565b82525050565b5f6020820190506102ea5f8301846102c8565b92915050565b5f73ffffffffffffffffffffffffffffffffffffffff82169050919050565b5f610319826102f0565b9050919050565b6103298161030f565b82525050565b5f6020820190506103425f830184610320565b92915050565b5f82825260208201905092915050565b7f4e6f7420546865204f776e6572000000000000000000000000000000000000005f82015250565b5f61038c600d83610348565b915061039782610358565b602082019050919050565b5f6020820190508181035f8301526103b981610380565b9050919050565b7f4e487b71000000000000000000000000000000000000000000000000000000005f52601260045260245ffd5b5f6103f7826102bf565b9150610402836102bf565b925082610412576104116103c0565b5b828206905092915050565b7f4e487b71000000000000000000000000000000000000000000000000000000005f52601160045260245ffd5b5f610454826102bf565b915061045f836102bf565b92508282039050818111156104775761047661041d565b5b92915050565b5f610487826102bf565b9150610492836102bf565b92508282019050808211156104aa576104a961041d565b5b92915050565b5f6060820190506104c35f8301866102c8565b6104d060208301856102c8565b6104dd60408301846102c8565b94935050505056fea2646970667358221220e5b72f96e679880bf54ca11d329949ac3c70262a7b7c201b59e0de13e3fd968064736f6c634300081c0033","linkReferences":{}},"methodIdentifiers":{"checkAndRebalance()":"3ed55f0c","getCurrentPrice()":"eb91d37e","liquidity()":"1a686502","lowerPrice()":"c87c0f79","owner()":"8da5cb5b","upperPrice()":"e345873e"},"id":0}